:020000040800F2
:100000000004002031020008710300087103000899
:1000100071030008710300087103000871030008F0
:1000200071030008710300087103000891030008C0
:10003000710300087103000871030008310400080F
:1000400071030008710300087103000871030008C0
:1000500071030008710300087103000871030008B0
:10006000710300087103000871030008B10700085C
:10007000E10700081108000841080008710800089D
:10008000A1080008D1080008E10D0008710300086C
:100090007103000871030008710300087103000870
:1000A0007103000871030008710300087103000860
:1000B00071030008710300080110000871030008B3
:1000C0007103000871030008710300087103000840
:1000D0007103000871030008811000087103000813
:1000E0007103000871030008710300087103000820
:1000F000710300087103000871030008010900087A
:1001000071030008710300087103000871030008FF
:1001100071030008710300087103000871030008EF
:10012000310900086109000891090008C1090008A7
:10013000F109000871030008710300087103000849
:1001400071030008710300087103000871030008BF
:10015000210A0008510A0008810A000871030008FA
:10016000710300087103000871030008710300089F
:10017000710300087103000871030008710300088F
:10018000710300087103000871030008710300087F
:10019000710300087103000871030008710300086F
:0C01A000710300087103000871030008DF
:1001B0004FF4006008B5C4F202002021032200F0D1
:1001C000B7FE4FF400600322C4F20200012100F0E8
:1001D000AFFE00F095FA40F6D80040F69811C2F252
:1001E0000000C2F2000100F0A3FA40F6D80040F689
:1001F000000140F69C12C2F20000C2F20001C2F2FD
:100200000002022300F0A4FAFEE700BFAFF3008073
:10021000704700BFAFF30080AFF30080AFF3008002
:10022000FEE700BFAFF30080AFF30080AFF30080C4
:1002300072B640F60000C2F2000080F30988022383
:1002400083F31488BFF36F8F40F2000340F2004243
:10025000C2F20003C2F2000293420BD2D94311440E
:1002600021F0030119444FF05532043B43F8042FA9
:100270008B42FBD140F20043C2F2000383420CD216
:1002800037491A1D891A21F0030119444FF05532DC
:10029000043B43F8042F8B42FBD100F081FF40F672
:1002A000000140F62803C2F20001C2F200039942A5
:1002B0000ED2CC431C4424F0030441F270200434D9
:1002C000C0F600000023C258CA500433A342FAD13A
:1002D00040F6280340F6A412C2F20003C2F2000264
:1002E00093420AD2D943114421F003011944002258
:1002F000043B43F8042F8B42FBD1FFF789FF40F208
:10030000AC1540F2AC13C0F60005C0F600039D42E8
:100310000BD2EE431E44B6080136043D00240134DE
:1003200055F8043F9847B442F9D1FFF741FF40F236
:10033000AC1540F2AC13C0F60005C0F600039D42B8
:100340000BD2EE431E44B6080136043D00240134AE
:1003500055F8043F9847B442F9D1FFF761FF00BF59
:1003600003080020AFF30080AFF30080AFF30080FC
:10037000FEE700BFAFF30080AFF30080AFF3008073
:1003800000F02EF900DF00BFAFF30080AFF3008074
:10039000EFF30983203383F30988002383F3118863
:1003A000704700BFAFF30080AFF30080AFF3008071
:1003B000202383F311884FF46D43CEF200035B6872
:1003C00013F400631FD0EFF309824FF0807342F8FB
:1003D000043CA2F1200383F3098840F63803C2F2FB
:1003E00000039969C87F88B118688B688168994251
:1003F00094BF0023012393B140F28133C0F6000380
:1004000042F8083C704783F31188704718688B687E
:100410008168994234BF00230123002BECD140F2C4
:100420008433C0F6000342F8083C7047AFF3008005
:1004300008B5202383F3118800F03AF8002383F3F2
:100440001188BDE80840FFF7B3BF00BFAFF30080DD
:100450002DE9F04FC1F80CD0D0F80CD0BDE8F08FEA
:1004600020F0030303F1604303F56143F0B400F0AF
:1004700003024409D3F80053D200FF26A40096409B
:1004800004F1604404F5614425EA06050127914022
:1004900000F01F0007FA00F045EA0102C3F800234C
:1004A000C4F880012060F0BC704700BFAFF300804B
:1004B00070B540F63803C2F200039B69DA7F0AB1D7
:1004C000013ADA771A6A40F62801C2F200010132D5
:1004D0001A62CB680A6801338A42CB6019D09668E9
:1004E000013E9660AEB90D461068D4680860D660CB
:1004F0000023416083F311881069A047202383F310
:1005000011882A68936840F62801C2F20001002B86
:10051000EAD070BDAFF30080AFF30080AFF300808E
:10052000002310B48168037740F638030446C2F212
:1005300000031B689A688A42FBD25A682360626093
:1005400020465C6014605DF8044B7047AFF3008098
:1005500040F63802C2F20002F0B4106895690368F0
:10056000AC6813600127142600215A600777034600
:100570009061EE77297700E01B689A68A242FBD26F
:100580005A682B606A6029465D601560F0BCFFF711
:100590005FBF00BFAFF30080AFF30080AFF3008018
:1005A00040F63802C2F2000270B410689569036820
:1005B000AC681360012600215A60067703469061FB
:1005C000297700E01B689A68A242FBD85A682B6022
:1005D0006A6029465D60156070BCFFF739BF00BFD7
:1005E00040F63803C2F200039B69DB7F0BB1FFF7D3
:1005F000D7BFFFF7ADBF00BFAFF30080AFF3008000
:100600000023406000608360704700BFAFF300804C
:1006100008B5826B037F1143082B81630BD0092B34
:1006200000D008BD436A19408B42FAD1FFF778FF2A
:100630000023436208BD436A1942F7D108BD00BFD9
:1006400070B50468A04205460E4608D0201D0BC8B0
:100650003343E360FFF7DCFF2468A542F6D170BDA9
:10066000034642698069824210B59C681BD0501CC9
:10067000013458619C60117059691A6991420BD21A
:10068000186898420DD002681A605360FFF748FF5F
:1006900000234362184610BD1868DA6898425A6110
:1006A000F1D1002010BD002CE1D06FF0030010BD8F
:1006B00082694169914210B50346846816D0186971
:1006C0000134511C9C609961814214780BD21868E6
:1006D000984206D002681A605360FFF721FF00239A
:1006E0004362204610BDDA689A61F0E7002CE6D03C
:1006F0006FF0020010BD00BFAFF30080AFF30080C9
:1007000000F0AEBAAFF30080AFF30080AFF300802B
:1007100000230122027043608360C3600361436170
:100720001830FFF76DBF00BFAFF30080AFF300805C
:1007300010B52023044683F31188416000F0B0FA1D
:1007400002232370002383F3118810BDAFF30080D0
:1007500010B51C46202383F31188032303708260A5
:10076000C460016100F0D4FA002383F3118810BD46
:1007700038B5436904460D463BB1294604F10C00E7
:10078000FFF76EFF00280BDB38BD04300421FFF7B4
:1007900057FF294604F10C00FFF762FF0028F3DA47
:1007A000201D8021BDE83840FFF74ABFAFF300802D
:1007B0004FF4C042C4F2020240F65403C2F20003F6
:1007C000116810B51C6801F03D0191600CB15868CA
:1007D000A047BDE81040FFF7EBBD00BFAFF30080BE
:1007E0004FF4C042C4F2020240F654031168C2F250
:1007F0000003890910B501F03D019C6888019060F3
:100800000CB1D868A047BDE81040FFF7D1BD00BFCC
:100810004FF4C042C4F2020240F654031168C2F21F
:100820000003090C10B501F03D011C69080490603B
:100830000CB15869A047BDE81040FFF7B9BD00BF33
:100840004FF4C042C4F2020240F654031168C2F2EF
:100850000003890D10B501F03D019C698805906089
:100860000CB1D869A047BDE81040FFF7A1BD00BF9B
:100870004FF4C042C4F2020240F65403C2F2000335
:10088000516810B51C6A01F03D01D1600CB1586A85
:10089000A047BDE81040FFF78BBD00BFAFF300805D
:1008A0004FF4C042C4F2020240F654035168C2F24F
:1008B0000003890910B501F03D019C6A8801D060F0
:1008C0000CB1D86AA047BDE81040FFF771BD00BF6A
:1008D0004FF4C042C4F2020240F654035168C2F21F
:1008E0000003090C10B501F03D011C6B0804D06039
:1008F0000CB1586BA047BDE81040FFF759BD00BFD1
:100900004FF4C042C4F2020240F654035168C2F2EE
:100910000003890D10B501F03D019C6B8805D06086
:100920000CB1D86BA047BDE81040FFF741BD00BF38
:100930004FF4C842C4F2020240F65403C2F200036C
:10094000116810B51C6C01F03D0191600CB1586C40
:10095000A047BDE81040FFF72BBD00BFAFF30080FC
:100960004FF4C842C4F2020240F654031168C2F2C6
:100970000003890910B501F03D019C6C880190606D
:100980000CB1D86CA047BDE81040FFF711BD00BF07
:100990004FF4C842C4F2020240F654031168C2F296
:1009A0000003090C10B501F03D011C6D08049060B6
:1009B0000CB1586DA047BDE81040FFF7F9BC00BF6F
:1009C0004FF4C842C4F2020240F654031168C2F266
:1009D0000003890D10B501F03D019C6D8805906004
:1009E0000CB1D86DA047BDE81040FFF7E1BC00BFD7
:1009F0004FF4C842C4F2020240F65403C2F20003AC
:100A0000516810B51C6E01F03D01D1600CB1586EFB
:100A1000A047BDE81040FFF7CBBC00BFAFF300809C
:100A20004FF4C842C4F2020240F654035168C2F2C5
:100A30000003890910B501F03D019C6E8801D0606A
:100A40000CB1D86EA047BDE81040FFF7B1BC00BFA5
:100A50004FF4C842C4F2020240F654035168C2F295
:100A60000003090C10B501F03D011C6F0804D060B3
:100A70000CB1586FA047BDE81040FFF799BC00BF0C
:100A80004FF4C842C4F2020240F654035168C2F265
:100A90000003890D10B501F03D019C6F8805D06001
:100AA0000CB1D86FA047BDE81040FFF781BC00BF74
:100AB0002DE9F04140F6D404C2F20004467A2568DC
:100AC000012707FA06FC1CEA050F3DD140F6540742
:100AD000C2F200074CEA050507EBC60815F0FF0F48
:100AE00047F83620C8F804301CBF4FF46053C4F2F6
:100AF000020325601EBF1C6B44F400141C6315F434
:100B00007F4F1FBF4FF46053C4F202031C6B44F4C9
:100B1000800418BF1C630468236823F01F0323604C
:100B2000236813F00105FBD1067A43683D27B740DF
:100B300021261F60256066614AB1807A0901FFF7AE
:100B40008FFC2846BDE8F0813846BDE8F0811046AC
:100B5000BDE8F081AFF30080AFF30080AFF3008019
:100B60004FF460514FF4E043C4F20201C4F20003B9
:100B70004FF080504FF4404208641A600B6843F015
:100B800001030B600A684FF460539007C4F202033C
:100B9000F8D51968002201F0F901196019469A6028
:100BA0008A684FF4605312F00C0FC4F20203F7D1BD
:100BB0001A6842F480321A6019460A684FF460538A
:100BC0009203C4F20203F8D55A6F42F001025A6749
:100BD00019464A6F4FF460539007C4F20203F8D5E8
:100BE00045F20842C0F240725A6019684FF4E04280
:100BF00041F080711960C4F2000253685904FCD5B9
:100C00004FF46051C4F202010A684FF4605392013C
:100C1000C4F20203F8D54FF47052C4F202024FF44A
:100C20001441C3F6080140F20570996010609A689B
:100C300042F002029A6019468A6802F00C024FF4F0
:100C40006053082AC4F20203F6D15A6C42F480427F
:100C50005A645A6E42F480425A667047AFF300807D
:100C600038B540F6D804C2F200042046FFF750FD24
:100C7000084D4FF4005242F61643C0F20203C4F28C
:100C80000102A262E562236312206021BDE83840C0
:100C9000FFF7E6BB40120008AFF30080AFF300801F
:100CA0000378012B10B5044600D010BD40F6D803E0
:100CB000C2F20003984210D04FF40C52C4F2010269
:100CC000A36A546804F44004002144F480340120F1
:100CD000546059609960986010BD40F66162C0F63A
:100CE000000206212346C06AFFF7E2FEE36A42F2F1
:100CF0004C0219684FF46053C4F20102C4F20203BB
:100D00008A605A6C42F480725A64D5E7AFF300806F
:100D10000369026B19782DE9F003C56829B1012D2B
:100D200094BF42F4807242F48472C16A5E8884681F
:100D30000968D3F80C80CC6006FB05F44C609F6911
:100D40000A60DE691D6A5C6AD3F814C01B69D1F8B9
:100D50000090826A13F0804F48F0806043F4407343
:100D600049F001094FF0000840F4807014BF43F0CF
:100D7000030343F00103C1F80090C2F80080C2F8F9
:100D80000CC01761D662156354635060BDE8F00370
:100D900093607047AFF30080AFF30080AFF3008043
:100DA000C16A0A68136823F01F0310B41360136844
:100DB00013F00103FBD10C7A826A48683D2101FAE5
:100DC00004F40121046053605DF8044B936091606A
:100DD000704700BFAFF30080AFF30080AFF3008037
:100DE0004FF40053C4F2010300211A6810B51960D2
:100DF00093062ED540F6D804C2F20004E36A1B68BD
:100E00005B6833B3236923B32046FFF7C9FF236927
:100E10009B684BB105222270204601219847237818
:100E2000052B04BF0223237000232361202383F3B7
:100E3000118840F6D803C2F20003586930B14FF070
:100E4000FF32426200225A61FFF76AFB002383F3FC
:100E50001188BDE81040FFF7ABBA00BFAFF30080C8
:100E600011F00C0F38B504461ED10369DBB18D06B5
:100E700011D51D78002D39D05D68A5B1C268012A51
:100E800085BF598883688168520884BF514303EB4A
:100E90004101A84738BDCA0605D55B681BB1C268C9
:100EA00081685208984738BDFFF77AFF23699B682D
:100EB0004BB1052222702046002198472378052B4C
:100EC00004BF0223237000232361202383F31188AE
:100ED00063693BB100214FF0FF32616118465A62ED
:100EE000FFF71EFB002383F3118838BDFFF758FF7F
:100EF00023695B68C3B1042222702046A168E268BE
:100F000098472378042B02BF0223256123702023F6
:100F100083F311886369002BE4D0002262611846D4
:100F20005A62FFF7FDFADDE7022223612270EEE745
:100F30002DE9F00F002302F00307C2F38006C2F38D
:100F4000C105C2F341144FF00F09C2F3C3124FF0B1
:100F5000010A04E07600AD00A400BF00013303F0F5
:100F6000070C4FEA8C0C11F0010F02FA0CF809FA89
:100F70000CFC3CD0072B95BFD0F820B0D0F824B0A3
:100F80002BEA0C0C2BEA0C0C95BF4CEA08084CEA37
:100F90000808C0F82080C0F82480D0F804C00AFAFD
:100FA00003F82CEA080C4CEA060CC0F804C04FF019
:100FB000030B4FEA430CD0F808800BFA0CFC6FEAE5
:100FC0000C0C0CEA080848EA0508C0F80880D0F8BC
:100FD0000C800CEA080848EA0408C0F80C80D0F835
:100FE00000800CEA080C4CEA070CC0F800C0490865
:100FF000B0D1BDE8F00F7047AFF30080AFF30080D1
:1010000038B540F60C15C2F200052B691A69DC6888
:101010001440A4B2E2B2D2431A61A3072AD46007F3
:1010200020D4210716D4E2060CD4E30706D56B685A
:1010300040F60C109B68C2F200009847BDE83840AB
:10104000FFF7B6B96B6840F60C109B6AC2F200005D
:101050009847EAE76B6840F60C101B6AC2F2000082
:101060009847E0E76B6840F60C109B69C2F20000FD
:101070009847D6E76B6828461B699847CFE700BFBB
:10108000F8B540F62016C2F20006756FAF892C88BD
:10109000A4B2E005BFB24BD4202383F31188A1068C
:1010A00024D50BE0A98840F62010C2F20000C9B296
:1010B000FFF75EFB2C88A4B2A00617D52207F1D05B
:1010C00014F0080F14BF8021002114F0010F18BF85
:1010D00041F02001A30748BF41F0400164072C48BC
:1010E00048BF41F48071FFF7ABFADBE7002383F3DD
:1010F0001188390601D5220629D4630614D5202388
:1011000083F31188726CB36C40F620109A42C2F2DD
:1011100000002BD04FF6BF733B404FF6BF72AB8140
:1011200000232A8083F31188BDE8F840FFF740B917
:10113000202383F311884FF40071301DFFF780FAEC
:10114000002383F311884FF6FF632B80A4E720234D
:1011500083F311880F48FFF7ABFA0028A4BF80B2D1
:10116000A8800BDB002383F31188C6E7836B002B79
:10117000D0D004301021FFF763FACBE704480821F0
:10118000FFF75EFA27F0C00343F04003AB81E9E7C5
:101190002409002050090020AFF30080AFF3008045
:1011A000FFF7DEBCAFF30080AFF30080AFF3008049
:1011B000106002400860024000000B0028600240FE
:1011C0000860024006010C004060024008600240D6
:1011D00010020D00586002400860024016030E0025
:1011E000706002400C60024000040F008860024002
:1011F0000C60024006051000A06002400C60024036
:1012000010061100B86002400C60024016072F0063
:10121000106402400864024000083800286402405C
:101220000864024006093900406402400864024034
:10123000100A3A005864024008640240160B3B0052
:10124000706402400C640240000C3C008864024060
:101250000C640240060D4400A06402400C6402408D
:10126000100E4500B86402400C640240160F4600A0
:10127000010002000000000000000000000000006B
:10128000000000000000000000001000000000004E
:081290004F0100000000000006
:0400000508000231BC
:00000001FF
