:020000040800F2
:1000000000040020C10300080105000801050008E4
:1000100001050008010500080105000801050008A8
:100020000105000801050008010500083105000868
:100030000105000801050008010500081106000877
:100040000105000801050008010500080105000878
:100050000105000801050008010500080105000868
:10006000010500080105000801050008811D0008C0
:10007000B11D0008E11D0008111E0008411E000806
:10008000711E0008A11E00080105000801050008F6
:100090000105000801050008010500080105000828
:1000A0000105000801050008010500080105000818
:1000B0000105000801050008413400080105000899
:1000C00001050008010500080105000801050008F8
:1000D0000105000801050008513600080105000867
:1000E00001050008010500080105000801050008D8
:1000F000010500080105000801050008D11E0008DF
:1001000001050008010500080105000801050008B7
:1001100001050008010500080105000801050008A7
:10012000011F0008311F0008611F0008911F00080F
:10013000C11F0008010500080105000801050008AD
:10014000010500080105000801050008812F0008CD
:10015000F11F0008212000085120000801050008B7
:100160000105000801050008010500080105000857
:100170000105000801050008010500080105000847
:100180000105000801050008010500080105000837
:100190000105000801050008010500080105000827
:0C01A00001050008010500080105000829
:1001B000F0B589B000F0A4FF00F09AFA03F0D0FB8C
:1001C00040F67060C2F2000044F2201401F058F9C9
:1001D000C0F6000440F670602146C2F2000001F053
:1001E00077F923681B6D9A6B22F400229A634FF40F
:1001F0007A7000F02DFD43F6F0712068C0F6000122
:1002000001F0E6FA23681B6D9A6B40F6604042F4F9
:1002100000229A63C2F20000002101F051F8002090
:10022000C4F20200042140F2823202F061F900209F
:1002300040F28232C4F20200082102F059F940F67D
:10024000E83044F24011C2F20000C0F600014FF461
:10025000806401F03DFAC4F2020440F6184044F212
:1002600050114FF48055C2F20000C0F6000101F0B9
:100270002FFA204629461922258302F039F9204613
:100280004FF4005140F29A2202F032F920464FF426
:10029000804140F2822202F02BF940F29A2220465D
:1002A0004FF4004102F024F940F64C4044F2801132
:1002B000C2F20000C0F6000100F072FF4FF440608F
:1002C0002946C4F202004FF4817202F011F94FF492
:1002D0004060C4F202004FF400514FF4817202F00A
:1002E00007F94FF44060C4F202004FF480414FF42C
:1002F000817202F0FDF84FF44060C4F202004FF446
:1003000000414FF4817202F0F3F8002240F62050D1
:1003100043F6F1130092C2F20000C0F600034FF45E
:10032000A8714A2240F6706641F2D00700F048FCFE
:10033000C2F20006C2F2000703E04FF4FA7000F0C8
:1003400087FCD6F854321B681B78042BF5D140F695
:10035000E8302921C2F2000003F08AFA44F268145E
:10036000C0F6000438700FCC03AD0FC5236803A896
:100370002B7003F075FC03A902464FF0FF330548CC
:1003800000F036FE1E2000F063FC4FF4FA7000F01F
:100390005FFCD2E7A00E0020AFF30080AFF3008037
:1003A000704700BFAFF30080AFF30080AFF3008071
:1003B000FEE700BFAFF30080AFF30080AFF3008033
:1003C00072B640F60000C2F2000080F309880223F2
:1003D00083F31488BFF36F8F40F2000340F20042B2
:1003E000C2F20003C2F2000293420BD2D94311447D
:1003F00021F0030119444FF05532043B43F8042F18
:100400008B42FBD140F20043C2F2000383420CD284
:1004100037491A1D891A21F0030119444FF055324A
:10042000043B43F8042F8B42FBD103F011FA40F652
:10043000000140F60803C2F20001C2F20003994233
:100440000ED2CC431C4424F0030444F2B81004340C
:10045000C0F600000023C258CA500433A342FAD1A8
:1004600040F6080341F2D402C2F20003C2F20002D5
:1004700093420AD2D943114421F0030119440022C6
:10048000043B43F8042F8B42FBD1FFF789FF40F276
:10049000AC1540F2AC13C0F60005C0F600039D4257
:1004A0000BD2EE431E44B6080136043D002401344D
:1004B00055F8043F9847B442F9D1FFF779FE40F26E
:1004C000AC1540F2AC13C0F60005C0F600039D4227
:1004D0000BD2EE431E44B6080136043D002401341D
:1004E00055F8043F9847B442F9D1FFF761FF00BFC8
:1004F00003080020AFF30080AFF30080AFF300806B
:10050000FEE700BFAFF30080AFF30080AFF30080E1
:1005100072B6FEE7AFF30080AFF30080AFF3008068
:1005200000F0CEFA00DF00BFAFF30080AFF3008031
:10053000EFF30983203383F30988002383F31188C1
:10054000704700BFAFF30080AFF30080AFF30080CF
:1005500008B54FF46D43CEF200034FF44072C0F281
:10056000FA52002199600720DA60102100F098F813
:100570000A20202100F094F80B208021BDE80840DB
:1005800000F08EB8AFF30080AFF30080AFF30080CF
:10059000202383F311884FF46D43CEF200035B6890
:1005A00013F400631FD0EFF309824FF0807342F819
:1005B000043CA2F1200383F3098840F64013C2F201
:1005C00000039969C87F88B118688B68816899426F
:1005D00094BF0023012393B140F22153C0F60003DE
:1005E00042F8083C704783F31188704718688B689D
:1005F0008168994234BF00230123002BECD140F2E3
:100600002453C0F6000342F8083C7047AFF3008063
:1006100008B5202383F3118800F0A2F8002383F3A8
:100620001188BDE80840FFF7B3BF00BFAFF30080FB
:100630002DE9F04FC1F80CD0D0F80CD0BDE8F08F08
:10064000002383F311882846A04700F049FB704738
:1006500020F0030303F1604303F56143F0B400F0BD
:1006600003024409D3F80053D200FF26A4009640A9
:1006700004F1604404F5614425EA06050127914030
:1006800000F01F0007FA00F045EA0102C3F800235A
:10069000C4F880012060F0BC704700BFAFF3008059
:1006A00020F0030303F1604303F56D4300F0030002
:1006B00010B4C0009A69FF24844022EA04028140F9
:1006C0000A439A615DF8044B704700BFAFF30080A6
:1006D00040F64012C2F2000243F6C0439269C0F6EF
:1006E00000039361FEE700BFAFF30080AFF300802B
:1006F00010B582B0FFF72CFF00F0EAF800F068F8C0
:1007000000F0B6FC00F0ECFC40F608004021C2F21C
:10071000000000F0E5F940F64013C2F200030122A8
:1007200098610277002383F3118862B640F6401384
:10073000C2F2000343F6D0429C69C0F600020021D9
:1007400040F6500040F2D163A261C0F60003009170
:100750000122E021C2F2000000F032FA02B010BD26
:1007600070B540F64013C2F200039B69DA7F0AB10C
:10077000013ADA771A6A40F63011C2F2000101320A
:100780001A62CB680A6801338A42CB6019D0966836
:10079000013E9660AEB90D461068D4680860D66018
:1007A0000023416083F311881069A047202383F35D
:1007B00011882A68936840F63011C2F20001002BBC
:1007C000EAD070BDAFF30080AFF30080AFF30080DC
:1007D00040F63013C2F200034FF0FF3100225B609D
:1007E0001B609960DA607047AFF30080AFF3008060
:1007F00030B440F63015C2F2000503612C68A368DE
:10080000C260994204D92468C91AA3688B42FAD3FA
:10081000636804604360AC426060186081601EBF22
:10082000A368C1EB0301A16030BC7047AFF3008047
:10083000036840F63012C2F2000293421FBF99686B
:10084000826852189A6042681360036800215A60F7
:10085000C1607047AFF30080AFF30080AFF300805A
:1008600010B4202383F31188037F0D2B11D8DFE808
:1008700003F029101007100B101010101010100B9F
:10088000436A9A6801329A6090E80C001A60026824
:1008900053604FF0FF34002340F6401281684462F9
:1008A0000377C2F20002126893688B42FBD2516850
:1008B0000260416000235060086083F311885DF896
:1008C000044B7047002383F311885DF8044B704795
:1008D00040F64013C2F2000300225B601B605B61C4
:1008E0001B619A60704700BFAFF30080AFF30080D8
:1008F000002310B48168037740F640130446C2F227
:1009000000031B689A688A42FBD25A6823606260BF
:1009100020465C6014605DF8044B7047AFF30080C4
:1009200040F64013C2F2000370B41A689969146863
:10093000087714260125CE77636015771C60104672
:1009400070BC9A61FFF774BEAFF30080AFF3008014
:1009500030B54B1C87B0054617D040F64014C2F2A4
:10096000000440F66102A36901A8C0F60002FFF787
:100970003FFF2846FFF7D4FF049B13B101A8FFF700
:1009800057FFA369586A07B030BD40F64014C2F261
:100990000004FFF7C5FFA369586A07B030BD00BF68
:1009A000F0B440F64017C2F200078568D7F818C0C7
:1009B000DCF808404162A54206460DD800223B46BD
:1009C00002771B689A689542FBD95A683360726057
:1009D0005E601660F0BC704700238CF81C303B460C
:1009E0001B689A689442FBD95A68CCF800300124FD
:1009F000CCF80420C3F804C0C2F800C034773046F5
:100A0000BE616146F0BCFFF713BE00BFAFF30080CC
:100A100040F64012C2F20002F0B410689569036813
:100A2000AC6813600127142600215A60077703463B
:100A30009061EE77297700E01B689A68A242FBD2AA
:100A40005A682B606A6029465D601560F0BCFFF74C
:100A5000EFBD00BFAFF30080AFF30080AFF30080C5
:100A600040F64012C2F2000270B410689569036843
:100A7000AC681360012600215A6006770346906136
:100A8000297700E01B689A68A242FBD85A682B605D
:100A90006A6029465D60156070BCFFF7C9BD00BF84
:100AA00040F64013C2F200031A689B6992689B6883
:100AB0009A4200D87047FFF7D3BF00BFAFF3008062
:100AC00040F64013C2F200039B69DB7F0BB1FFF7D6
:100AD000C7BFFFF79DBF00BFAFF30080AFF300803B
:100AE0002DE9F00340F64012C2F2000200245569DD
:100AF000447700F12C064FF002094FF0140800F182
:100B000028074FF0010C45610261816080F81C905C
:100B100080F81F80C463846304628461016450614F
:100B200080F81EC0286187620663C662BDE8F003D4
:100B3000704700BFAFF30080AFF30080AFF30080D9
:100B40002DE9F00F40F64015C2F2000582B0A1F188
:100B5000240C696900EB0C0601910A99C66040F209
:100B6000416740F80C3071600199002300F12C0BB3
:100B7000C0F600074FF0020A4FF014094FF00108C9
:100B800000F1280C3762826005614161026480F8DF
:100B90001CA080F81F9080F81E8043776861C363B3
:100BA0008363036283610861C0F828C0C0F830B075
:100BB000C0F82CB002B0BDE8F00F7047AFF3008072
:100BC0002DE9F0479E460446202383F3118840F622
:100BD0004016C2F20006A1F1240318447769E060D0
:100BE00040F2416144F803E0089B002504F12C0E1B
:100BF00004F1280CC0F600014FF0020A4FF014096E
:100C00004FF0010843600162A260266167612264BF
:100C100084F81CA084F81F9084F81E8065777461A6
:100C2000E563A5632562A56120463C612946C4F8B9
:100C300028C0C4F830E0C4F82CE0FFF7B1FE2B4622
:100C400083F311882046BDE8F08700BFAFF3008032
:100C500008B50146202383F311880620FFF778FEAC
:100C6000002383F3118808BDAFF30080AFF3008049
:100C700008B5202383F3118840F63013C2F2000335
:100C8000D968411A02D00620FFF762FE002383F3E1
:100C9000118808BDAFF30080AFF30080AFF3008090
:100CA00038B540F64013C2F200039C6925466062E5
:100CB00055F8280FA84206D00368A362FFF718FE74
:100CC000A06AA842F8D1637F9B0704D122696369B7
:100CD0001A61226953610E20BDE83840FFF720BE3B
:100CE000202383F31188FFF7DBBF00BFAFF3008041
:100CF0000023406000608360704700BFAFF3008056
:100D000008B5826B037F1143082B81630BD0092B3D
:100D100000D008BD436A19408B42FAD1FFF7E8FDC5
:100D20000023436208BD436A1942F7D108BD00BFE2
:100D300070B50468A04205460E4608D0201D0BC8B9
:100D40003343E360FFF7DCFF2468A542F6D170BDB2
:100D500010B4024679B140F64013C2F200030D20F0
:100D60009B695A62546883E81400536023605DF8FD
:100D7000044BFFF7EDBD4FF0FF305DF8044B7047BB
:100D800030B4029C406000250A4485600462026120
:100D9000006041618161C160C36130BC704700BFC8
:100DA00038B50446C368006863610022A042A260AF
:100DB000A3610AD06FF00105036823605C60FFF750
:100DC00097FD45622068A042F6D138BDAFF30080A0
:100DD000034642698069824210B59C681BD0501C52
:100DE000013458619C60117059691A6991420BD2A3
:100DF000186898420DD002681A605360FFF778FDBA
:100E000000234362184610BD1868DA6898425A6198
:100E1000F1D1002010BD002CE1D06FF0030010BD17
:100E200070B5202304460E4683F31188C3692BB1A5
:100E3000984703E0FFF78CFF002815DBA5682046E4
:100E40003146002DF6D0A2692169531C8B42A36163
:100E500005F1FF3528BFE368A560107828BFA361BE
:100E6000002383F3118870BD2B4683F3118870BD76
:100E70002DE9F0471E460446D0F81C80202383F35A
:100E800011884FF0000901EB020A4F1CB8F1000F66
:100E900005D02046C04702E0FFF75AFFF0B9A56829
:100EA00020463146002DF7D0A369013D5A1CA261AE
:100EB000A5601B7807F8013C2369A2699A4224BF08
:100EC000E368A361002383F31188574509F1010901
:100ED00007D0202383F311880137D7E72B4683F30C
:100EE00011884846BDE8F087AFF30080AFF300807B
:100EF00030B4029C40608D1805610462006082601D
:100F000041618161C160C36130BC7047AFF3008053
:100F100038B50269C368044600686361D21AA0420A
:100F2000A361A2600AD06FF00105036823605C60D2
:100F3000FFF7DEFC45622068A042F6D138BD00BF55
:100F4000F8B504460F461646202383F3118803E0C4
:100F5000FFF7FEFE002819DBA56820463146002D6C
:100F6000F6D06369013D5A1C6261A5601F70236958
:100F700062699A4224BFE3686361E3690BB120466A
:100F80009847002383F311880020F8BD2B4683F394
:100F90001188F8BDAFF30080AFF30080AFF300809D
:100FA00082694169914210B50346846816D0186978
:100FB0000134511C9C609961814214780BD21868ED
:100FC000984206D002681A605360FFF791FC002334
:100FD0004362204610BDDA689A61F0E7002CE6D043
:100FE0006FF0020010BD00BFAFF30080AFF30080D0
:100FF0002DE9F84F9A4604460E461746D0F81C9045
:10100000202383F311884FF00008A56806F1010B37
:1010100020466B1EDDB16269A360531C63613378A7
:101020001370236962699A4224BFE3686361B9F16E
:10103000000F00D0C847002383F31188013F08F157
:1010400001080DD0202383F311885E46DDE720469A
:101050005146FFF77DFE0028D7D02B4683F3118839
:101060004046BDE8F88F00BFAFF30080AFF30080CB
:101070004CF2000140F65C1240F660130648C2F2E2
:101080000101C2F20002C2F2000321F0070120F0C8
:101090000700116018607047DB100020AFF300807C
:1010A000202383F3118840F6601340F65C12C2F2ED
:1010B0000003C2F2000219681268073020F007002E
:1010C000521A90429BBF4018186000200846002327
:1010D00083F31188704700BFAFF30080AFF3008047
:1010E00040F66813C2F2000341F2A1020021C0F6EB
:1010F000000203F110001A609960D960FFF7F8BD93
:1011000008B501F045F843F68060C0F6000001F034
:1011100017F900F035F800F0A3F800F0C9FA00F074
:101120003FFB00F0A5F9BDE8084002F099BB00BF05
:101130004FF48053CEF2000310B45A681C4610449A
:10114000824263680BD2984294BF002101219A42E7
:1011500088BF00210029F3D15DF8044B70479A4203
:101160008CBF00210121984288BF41F00101002974
:10117000E6D1F1E7AFF30080AFF30080AFF300807A
:1011800002F09EB9AFF30080AFF30080AFF30080B0
:101190000122002302704360704700BFAFF300805C
:1011A00010B52023044683F311888B8841600381A6
:1011B00002F096F902232370002383F3118810BDF7
:1011C00008B5202383F3118802F012FA002383F379
:1011D000118808BDAFF30080AFF30080AFF300804B
:1011E0000C30FFF745BE00BFAFF30080AFF30080C7
:1011F0000C304FF0FF33FFF73BBE00BFAFF3008072
:101200003030FFF7F5BE00BFAFF30080AFF30080D2
:1012100030304FF0FF33FFF7EBBE00BFAFF300807D
:101220000C30FFF7FDBD00BFAFF30080AFF30080CF
:101230000C304FF0FF31FFF7F3BD00BFAFF300807C
:101240003030FFF77DBE00BFAFF30080AFF300800A
:1012500030304FF0FF32FFF773BE00BFAFF30080B6
:1012600002F086BAAFF30080AFF30080AFF30080E6
:1012700070B543F6F043C0F60003044682B040F870
:10128000043B012600940B461546606004F15401AE
:1012900004F10C0026721022FFF772FD00942B4619
:1012A00004F1300004F164011022FFF721FE02B0C6
:1012B00070BD00BFAFF30080AFF30080AFF30080DC
:1012C00010B52023044683F3118802F069FA022343
:1012D0002372002383F3118810BD00BFAFF3008099
:1012E00038B5436904460D463BB1294604F10C006C
:1012F000FFF76EFD00280BDB38BD04300421FFF73B
:1013000017FD294604F10C00FFF762FD0028F3DA0F
:10131000201D8021BDE83840FFF70ABDAFF30080F3
:1013200010B5046AD4F854321A681178042900D030
:1013300010BD217A0229FBD112891B7942FA03F3ED
:1013400013F00103F4D1206CE16BA26B411A8A1AED
:10135000EED083F31188D4F8541213460868097943
:1013600004F1300200F07CFA202383F31188D4F8D2
:101370005432BDE810401868197900F099BA00BFDE
:1013800038B5046AD4F8542213681978042900D0B7
:1013900038BD217A0229FBD15279598903EB8203A6
:1013A00041FA02F2DB68598A12F00103F0D1E569D3
:1013B000A0696269281A801A8142E9D883F31188EA
:1013C000D4F85422B0FBF1F301FB03F31068517918
:1013D00004F10C0200F034FA202383F31188D4F8CE
:1013E000543218685979BDE8384000F049BA00BF56
:1013F0000C30FFF73DBD00BFAFF30080AFF30080BE
:101400000C304FF0FF33FFF733BD00BFAFF3008068
:101410003030FFF7EDBD00BFAFF30080AFF30080C9
:1014200030304FF0FF33FFF7E3BD00BFAFF3008074
:101430000C30FFF7F5BC00BFAFF30080AFF30080C6
:101440000C304FF0FF31FFF7EBBC00BFAFF3008073
:101450003030FFF775BD00BFAFF30080AFF3008001
:1014600030304FF0FF32FFF76BBD00BFAFF30080AD
:10147000704700BFAFF30080AFF30080AFF3008090
:1014800010B5024643F61053C0F6000342F8043B81
:1014900082B00446012141F281330090C0F600037E
:1014A000426001724FF4807204F154010C30FFF776
:1014B00067FC41F22133009404F1300004F5AA7175
:1014C000C0F600034FF48072FFF712FD02B010BDAA
:1014D00030B40A68202383F311880B7902EB83036D
:1014E000022498614D790935002342F825008D7951
:1014F00002EB85029061C0F85412047283F31188E4
:1015000030BC7047AFF30080AFF30080AFF30080D2
:1015100070B5D0F8543200F10C06044630461D6810
:10152000FFF73EFC04F13000FFF7F2FC201D012123
:10153000FFF7FEFBD4F85432597905EB81032846B6
:10154000DB6832465B8A00F07BF9D4F854322846D7
:101550005979BDE8704000F093B900BFAFF3008047
:1015600090F8443003F06003202B01D00020704736
:1015700090F84530212B03D0222B0CD0202BF5D115
:1015800040F60003C2F20003072100228363C16317
:1015900002640120704700238363C3630364012056
:1015A000704700BFAFF30080AFF30080AFF300805F
:1015B00000EB810370B59C6906460D46ACB1202353
:1015C00083F311880821201DFFF7B2FB216CE26B29
:1015D000A36B8A1AD11A13D106EB8503DA68536913
:1015E0005B681BB9002383F3118870BD128A013A2E
:1015F0001340F7D183F31188002304F1300205E092
:10160000002383F3118804F130020B46304629464B
:1016100000F026F9202383F311883046294600F094
:1016200047F9DFE7AFF30080AFF30080AFF300804E
:1016300001F1090370B550F823400D460646A4B1E8
:10164000202383F3118804216018FFF771FB06EB58
:101650008503E069DA68A1696369528A411AC91A87
:101660008A4203D9002383F3118870BD002383F3DA
:101670001188B1FBF2F302FB03F3304604F10C02D4
:10168000294600F0DDF8202383F3118830462946EF
:1016900000F0F6F8E6E700BFAFF30080AFF300809C
:1016A000704700BFAFF30080AFF30080AFF300805E
:1016B00001F0B6BDAFF30080AFF30080AFF3008060
:1016C000002301220270436083600C30FFF710BBDF
:1016D00010B52023044683F31188416001F0E0FD3A
:1016E00002232370002383F3118810BDAFF3008021
:1016F00008B5202383F3118801F042FE002383F311
:10170000118808BDAFF30080AFF30080AFF3008015
:1017100008B5202383F3118801F042FE002383F3F0
:10172000118808BDAFF30080AFF30080AFF30080F5
:1017300038B51D460446202383F3118803202B4629
:101740002070204601F03CFE40F64013C2F2000338
:1017500002209B69A360FFF7E3F8002383F311885D
:1017600038BD00BFAFF30080AFF30080AFF300805F
:1017700010B52023044683F311880323037001F07E
:101780003FFE40F64013C2F2000302209B69A360B3
:10179000FFF7C6F8002383F3118810BDAFF3008074
:1017A00001F056B9AFF30080AFF30080AFF30080D3
:1017B0000023012202704360C36183620362C3623B
:1017C0004362036303814381704700BFAFF300802E
:1017D00038B50446202383F3118800254160C56095
:1017E00005614561856101F04BF902222B462270AB
:1017F00083F3118838BD00BFAFF30080AFF30080E2
:1018000070B50646506914460D4618B100211422E1
:1018100002F0D6F9A06918B10021102202F0D0F927
:1018200006EB85033046DC602946BDE8704001F0D8
:101830000FBA00BFAFF30080AFF30080AFF30080BA
:1018400070B400EB81040126E468A4690025E2601D
:1018500063602670A56070BC01F0EABAAFF3008047
:1018600070B400EB81040126E46864690025E2603D
:1018700063602670A56070BC01F0F2BAAFF300801F
:1018800070B5448944FA01F313F0010601D0012038
:1018900070BD012303FA01F52C43448101F010FCD3
:1018A000304670BDAFF30080AFF30080AFF300802F
:1018B00070B5048944FA01F313F0010601D0012048
:1018C00070BD012303FA01F52C43048101F008FCEB
:1018D000304670BDAFF30080AFF30080AFF30080FF
:1018E000002202210170A0F84C2080F84E2080F8E0
:1018F0004F2002814281C26002614261826180F8B0
:10190000342001F035B900BFAFF30080AFF30080A1
:1019100070B50023044680F8343000F1440201F031
:1019200077FA63689B686BB32046984750B3E06BC7
:1019300094F8443094F84B1094F84A2042EA01227B
:1019400082423CBFE263104613F0800FE36840F030
:10195000888000286CD15B69052284F83420014618
:101960001870D86058609860204601F079FA2023FA
:1019700083F3118800212046FFF79AFF002383F3A9
:10198000118870BD94F8443013F0600611D02046E1
:10199000002101F0CDFB2046002101F0B9FB636876
:1019A0001B6813B1204605219847062384F834307C
:1019B00070BD94F8455003F07F0242EA0525B5F565
:1019C000407F00F0E88016DDB5F5C06F00F0CB80F9
:1019D0005EDDB5F5106F6ED040F60242954200F024
:1019E000ED80B5F5006FD2D104F14F0201202664DD
:1019F000A263E0639EE7022D00F09C8040F391809B
:101A0000B5F5807F7DD0B5F5817FC0D194F84620B3
:101A1000002ABCD194F8482012F00F0146D01206DB
:101A2000204600F1F98001F093FB94F844303DE04A
:101A30009B69A56B0022042184F834101146DD60F7
:101A400058601A709A60204601F0F2F9202383F35F
:101A5000118800212046FFF713FF002383F311882C
:101A600070BD58B15B69A56B0022012184F8341068
:101A70001146DD6058601A709A6075E79B69032211
:101A800084F8342001461870D86058609860DAE70E
:101A900040F20232954221D0B5F5A06F7FF477AFC6
:101AA000B4F84420B2F5A06F00F0A4800020A06339
:101AB000E06320643EE794F8462084F84F20002A33
:101AC00040F086800322227062681268002AEDD0FE
:101AD00020460221904794F84430E7E794F84620E6
:101AE000002A7FF454AF94F8482012F00F01DDD0A3
:101AF0001306204600F1958001F00AFB94F844306B
:101B0000D4E794F84620012A7FF441AFB4F84C2082
:101B1000A66322F00202E66326643046A4F84C2055
:101B200008E7002D47D104F14C0202202564A2638E
:101B3000E063FFE694F8481011F0800F204601F0B2
:101B40000F0148D101F044F9012848D002287FF460
:101B50001EAF43F64053C0F60003A363E063266460
:101B600094F84430E6E6626894F8490094F8483006
:101B7000556894F8471094F8462043EA002320461D
:101B8000A84700283FF403AF09C82664A363E063B5
:101B900094F84430CEE694F84620012A7FF4F7AE5C
:101BA000B4F84C20A66342F00202E6632664304695
:101BB000A4F84C20BEE6012D7FF4E9AE43F6305286
:101BC000C0F6000202200021A263E0632164B1E6B6
:101BD0000422227078E701F00BF90128B6D143F610
:101BE0005053C0F60003A363E5632664284694F8C7
:101BF00044309FE694F84630204684F84E3001F099
:101C000017F863681B6813B1204601219847032326
:101C1000237094F8443049E701F0AAFA94F844306C
:101C200044E701F085FA94F844303FE7AFF30080D1
:101C300038B590F83430022B044643D0052B3AD007
:101C4000012B10D0002101F073FA2046002101F091
:101C50005FFA63681B6813B1204605219847062385
:101C600084F8343038BD90F84B1090F84A30C26B8D
:101C700043EA01239342C36805D9198AB2FBF1F5FF
:101C800001FB152202B39A690321002384F8341062
:101C9000204619461370D3605360936001F0C8F872
:101CA000202383F3118800212046FFF7E9FD00235C
:101CB00083F3118838BD036C03B19847002384F87F
:101CC000343038BDC368DEE75B6911461A70DA60EC
:101CD0005A609A6001F0C4F8202383F31188002130
:101CE0002046FFF7E5FD002383F31188022384F8E3
:101CF000343038BDAFF30080AFF30080AFF3008025
:101D000090F83430032B10B504462BD0042B11D09F
:101D10002046002101F00CFA2046002101F0F8F9DC
:101D200063681B6813B1204605219847062384F891
:101D3000343010BDC3685A690521002380F834107F
:101D400019461370D3605360936001F089F8202323
:101D500083F3118800212046FFF7AAFD002383F3B7
:101D6000118810BDC3689B699B68002BD0D1036CA0
:101D700003B19847002384F8343010BDAFF30080DE
:101D80004FF4C042C4F2020240F68813C2F20003CC
:101D9000116810B51C6801F03D0191600CB15868E4
:101DA000A047BDE81040FEF7F3BB00BFAFF30080D3
:101DB0004FF4C042C4F2020240F688131168C2F226
:101DC0000003890910B501F03D019C68880190600D
:101DD0000CB1D868A047BDE81040FEF7D9BB00BFE2
:101DE0004FF4C042C4F2020240F688131168C2F2F6
:101DF0000003090C10B501F03D011C690804906056
:101E00000CB15869A047BDE81040FEF7C1BB00BF48
:101E10004FF4C042C4F2020240F688131168C2F2C5
:101E20000003890D10B501F03D019C6988059060A3
:101E30000CB1D869A047BDE81040FEF7A9BB00BFB0
:101E40004FF4C042C4F2020240F68813C2F200030B
:101E5000516810B51C6A01F03D01D1600CB1586A9F
:101E6000A047BDE81040FEF793BB00BFAFF3008072
:101E70004FF4C042C4F2020240F688135168C2F225
:101E80000003890910B501F03D019C6A8801D0600A
:101E90000CB1D86AA047BDE81040FEF779BB00BF7F
:101EA0004FF4C042C4F2020240F688135168C2F2F5
:101EB0000003090C10B501F03D011C6B0804D06053
:101EC0000CB1586BA047BDE81040FEF761BB00BFE6
:101ED0004FF4C042C4F2020240F688135168C2F2C5
:101EE0000003890D10B501F03D019C6B8805D060A1
:101EF0000CB1D86BA047BDE81040FEF749BB00BF4E
:101F00004FF4C842C4F2020240F68813C2F2000342
:101F1000116810B51C6C01F03D0191600CB1586C5A
:101F2000A047BDE81040FEF733BB00BFAFF3008011
:101F30004FF4C842C4F2020240F688131168C2F29C
:101F40000003890910B501F03D019C6C8801906087
:101F50000CB1D86CA047BDE81040FEF719BB00BF1C
:101F60004FF4C842C4F2020240F688131168C2F26C
:101F70000003090C10B501F03D011C6D08049060D0
:101F80000CB1586DA047BDE81040FEF701BB00BF83
:101F90004FF4C842C4F2020240F688131168C2F23C
:101FA0000003890D10B501F03D019C6D880590601E
:101FB0000CB1D86DA047BDE81040FEF7E9BA00BFEC
:101FC0004FF4C842C4F2020240F68813C2F2000382
:101FD000516810B51C6E01F03D01D1600CB1586E16
:101FE000A047BDE81040FEF7D3BA00BFAFF30080B2
:101FF0004FF4C842C4F2020240F688135168C2F29C
:102000000003890910B501F03D019C6E8801D06084
:102010000CB1D86EA047BDE81040FEF7B9BA00BFBA
:102020004FF4C842C4F2020240F688135168C2F26B
:102030000003090C10B501F03D011C6F0804D060CD
:102040000CB1586FA047BDE81040FEF7A1BA00BF21
:102050004FF4C842C4F2020240F688135168C2F23B
:102060000003890D10B501F03D019C6F8805D0601B
:102070000CB1D86FA047BDE81040FEF789BA00BF89
:1020800040F60823C2F2000330B4002143F6605545
:1020900040F6881419600A460B46C0F60005C2F2E5
:1020A0000004E8580C33C02B0160A15002F1080273
:1020B000F7D14FF4C0414FF4C842C4F20201C4F258
:1020C00002024FF0FF338B6030BCCB609360D36073
:1020D000704700BFAFF30080AFF30080AFF3008024
:1020E0002DE9F04140F60824C2F20004467A256842
:1020F000012707FA06FC1CEA050F3DD140F68817B8
:10210000C2F200074CEA050507EBC60815F0FF0F01
:1021100047F83620C8F804301CBF4FF46053C4F2AF
:10212000020325601EBF1C6B44F400141C6315F4ED
:102130007F4F1FBF4FF46053C4F202031C6B44F483
:10214000800418BF1C630468236823F01F03236006
:10215000236813F00105FBD1067A43683D27B74099
:1021600021261F60256066614AB1807A0901FEF769
:102170006FFA2846BDE8F0813846BDE8F081104688
:10218000BDE8F081AFF30080AFF30080AFF30080D3
:102190004FF46053C4F20203F0B400224FF0FF3456
:1021A00019691C611A6159695C615A611E6A4EF2B3
:1021B0001001CEF2000166F0805649F23F054EF65E
:1021C000F0501E62CEF200001A62C0F2020507262D
:1021D0005F6A5C625A624D608A600E60C4684FF448
:1021E0008051CEF2000144F08074C460086840F071
:1021F00001000860186C4FF4E041C4F2000140F0A7
:1022000080501864086840F480700860196F01F409
:102210004071B1F5007F1EBF4FF4803119671A6716
:102220004FF4E043C4F20003F0BC5A6822F4007299
:102230005A60FFF725BF00BFAFF30080AFF3008007
:102240004FF460514FF4E043C4F20201C4F20003C2
:102250004FF080504FF4404208641A600B6843F01E
:1022600001030B600A684FF460539007C4F2020345
:10227000F8D51968002201F0F901196019469A6031
:102280008A684FF4605312F00C0FC4F20203F7D1C6
:102290001A6842F480321A6019460A684FF4605393
:1022A0009203C4F20203F8D55A6F42F001025A6752
:1022B00019464A6F4FF460539007C4F20203F8D5F1
:1022C00045F20842C0F240725A6019684FF4E04289
:1022D00041F080711960C4F2000253685904FCD5C2
:1022E0004FF46051C4F202010A684FF46053920146
:1022F000C4F20203F8D54FF47052C4F202024FF454
:102300001441C3F6080140F20570996010609A68A4
:1023100042F002029A6019468A6802F00C024FF4F9
:102320006053082AC4F20203F6D15A6C42F4804288
:102330005A645A6E42F480425A667047AFF3008086
:102340004FF46053C4F202031A6B6FEA52226FEA31
:1023500042221A631A6D6FEA52226FEA42221A650C
:1023600000234168C4F202034FF48062596081681F
:102370009960C168D96001695961416919628169CF
:10238000596201681960016AC4F202024FF40063E5
:102390005160416A9160816AD160C16A5161016B8B
:1023A0001162416B5162C1691160C4F20203C16BD9
:1023B0005960016C9960416CD960816C5961C16C44
:1023C0001962016D5962816B4FF440621960816D31
:1023D000C4F202024FF480535160C16D9160016EEE
:1023E000D160416E5161816E1162C16E5162416D69
:1023F0001160C4F20203416F5960816F9960C16F2F
:10240000D960D0F880105961D0F884101962D0F8E2
:1024100088105962016F4FF4A0521960D0F89010E3
:10242000C4F202024FF4C0535160D0F8941091608E
:10243000D0F89810D160D0F89C105161D0F8A0105D
:102440001162D0F8A4105162D0F88C101160D0F84D
:10245000AC10C4F202034FF4E0525960D0F8B0104F
:102460009960D0F8B410D960D0F8B8105961D0F89C
:10247000BC101962D0F8C0105962D0F8A810C4F28C
:1024800002021960D0F8C8305360D0F8CC309360A5
:10249000D0F8D030D360D0F8D4305361D0F8D830F1
:1024A0001362D0F8DC305362D0F8C4104FF40053FC
:1024B0001160D0F8E420C4F202035A60D0F8E8209A
:1024C0009A60D0F8EC20DA60D0F8F0205A61D0F8A9
:1024D000F4201A62D0F8F8205A62D0F8E0201A608E
:1024E000704700BFAFF30080AFF30080AFF3008010
:1024F0002DE9F00F002302F00307C2F38006C2F3B8
:10250000C105C2F341144FF00F09C2F3C3124FF0DB
:10251000010A04E07600AD00A400BF00013303F01F
:10252000070C4FEA8C0C11F0010F02FA0CF809FAB3
:102530000CFC3CD0072B95BFD0F820B0D0F824B0CD
:102540002BEA0C0C2BEA0C0C95BF4CEA08084CEA61
:102550000808C0F82080C0F82480D0F804C00AFA27
:1025600003F82CEA080C4CEA060CC0F804C04FF043
:10257000030B4FEA430CD0F808800BFA0CFC6FEA0F
:102580000C0C0CEA080848EA0508C0F80880D0F8E6
:102590000C800CEA080848EA0408C0F80C80D0F85F
:1025A00000800CEA080C4CEA070CC0F800C049088F
:1025B000B0D1BDE8F00F7047AFF30080AFF30080FB
:1025C000F8B5056D05EB41130646D3F8084B220715
:1025D0000F46C3F8084B03D5D5F814381B0714D49D
:1025E000E20703D5D5F81438DB0700D4F8BD06EBB5
:1025F00087037189DB680122BA4021EA02027281F5
:10260000DB68304639469847F8BD00EB8103DB684C
:102610005B689847E4E700BFAFF30080AFF300804A
:102620002DE9F04F40F64011C2F2000185B08A69F1
:10263000029143F63063C0F60003016D93612023DD
:1026400083F311888046894698F80030012B06D024
:10265000D8F85C3083B9D9F81430D8060CD4029974
:10266000D9F818208B6942F01002C9F8182002200E
:10267000C8F86430FEF754F9002383F311884FF053
:10268000000AD9F81430D90623D5D8F850703D6A1D
:1026900005F4F013B3F5802F32D0B3F5402FF0D10D
:1026A00005F00F0208EB8202C5F30A13D268033368
:1026B0009B08106AE5D007F580570222396812B1ED
:1026C00040F8041B013A013BF8D1D9F81430D9067F
:1026D000DBD4D8F85C30012101FA0AF119420191EA
:1026E00008BF0AF1010B40F08180D8F854309B6894
:1026F0005FFA8BFA9A45C4D9202383F31188A3E7A4
:1027000005F00F0608EB860BC5F30A15DBF80C3055
:1027100098690378E3B9021D1CCA0332D21AEB1C74
:102720009B084FEA92021CBF07F58057A64606D0C9
:10273000396812B14EF8041B013A013BF8D12C4420
:10274000C460DBF80C309B699A682A449A6098E769
:10275000C46807F580572846AE46002D2BD00328C5
:1027600007D96369226993423ED3E3680328636112
:10277000F7D83E68F0B16369002200E06369D100D8
:1027800026FA01F15D1C65611970636921698B424C
:1027900024BFE3686361013802F101020CBF00232A
:1027A0000123032A8CBF002303F00103002BE5D192
:1027B0000028D4D17546202383F31188A3682068AC
:1027C0002B44A042A36009D0036823605C60FEF73D
:1027D0008FF8002242622068A042F5D1FEF760F92E
:1027E000002383F31188ACE73E68C5E7202383F319
:1027F0001188D8F85C30D9F80810019821F001014F
:1028000023EA0002C9F808100023C8F85C2083F30B
:10281000118808EB8A010091C96848698368426899
:102820009A4240F2CC80D8F85040098A4FEA4A17C1
:10283000E519D21AD5F818398A4234BF15460D4623
:102840009BB2B5EB830F0AF1010B9EBF4FEA0B322F
:10285000CDF80C9091462DD80378002B3FD1EB1C7E
:10286000D0F80CE09B084C4418BF724604D052F8D4
:10287000041B013B2160FAD10EEB0503C360009AF3
:10288000D1684869836842682B449A42836040F269
:102890009280D8F85040098AE519D21AD5F818392B
:1028A0008A4234BF15460D469BB2B5EB830FD3D990
:1028B000DDF80C900022202383F31188D9F808302A
:1028C00043F00103C9F808302AB9D9F8343801991E
:1028D0000B43C9F83438002383F3118805E704EB70
:1028E000090A2A46C468AE4615B3960839D0256948
:1028F000A169681AC31C30EA200028BF184683105B
:102900009E4238BF33464FEA830CCCEB02023BB108
:10291000084650F8046B013BCAF80060F9D16144E5
:10292000A942A16144D3E368A361002ADDD17546C1
:10293000202383F31188A36820682B44A042A3605E
:1029400009D0036823605C60FDF7D2FF0022426279
:102950002068A042F5D1FEF7A3F8002383F3118885
:102960008DE71646FAB12569A1690026334600E0D5
:10297000A169481CA06191F800C0D9000CFA01F1CE
:10298000A84246EA010624BFE168A161013A03F1C9
:1029900001030CBF00210121032B8CBF002101F09A
:1029A00001010029E4D1CAF80060002A9DD1BEE7E8
:1029B000002ADAD1BBE7DDF80C9001227BE70AF1AF
:1029C000010BFAE7AFF30080AFF30080AFF30080B4
:1029D000D1F808C000212DE9F0010D464FF08048E4
:1029E0004FF0FF3713E00319C3F81059C3F8087903
:1029F000D2F8006B002EA8BFC2F8005B18DB0444BD
:102A000001316145C4F8105BC4F8087B18D84C014B
:102A10000219D2F80039002BA8BFC2F80059E2DA37
:102A2000C2F800891646D6F808399B07FBD5DAE7C5
:102A3000C2F8008B1A46D2F8083BDE06FBD5DEE76B
:102A40004FF00113C0F81C38BDE8F001704700BF1B
:102A500010B540F61024C2F200042046FEF7A8FE8E
:102A600043F6206300224FF0A041C0F60003216529
:102A700063652266626610BDAFF30080AFF300802D
:102A800070B50378066D012B82B0054601D002B007
:102A900070BD40F61023C2F20003984251D02B6E55
:102AA0000022EA65002B3DD04FF4A2520323C0F26E
:102AB0002023C4F2000200204FF45021F260C6F837
:102AC0000038C6F8000EB1632C6D2020FEF730FBF5
:102AD000012323612369DA07FCD40C20FEF728FBCD
:102AE0002369002BFCDA0024B460286D696DFFF7C0
:102AF0006FFF6B68C6F81048DB68C6F81448C6F864
:102B00001C485BB143F20803B3614FF0FF337361BC
:102B1000B36843F00103B36002B070BD4FF440539B
:102B2000B361F2E742F221630095C0F6000305F1BC
:102B300068004FF4A8710222FEF702F86866286662
:102B4000B2E74FF46053C4F202030022596B41F024
:102B500080015963596941F08001596143205A61EC
:102B6000E021FDF775FD9AE7AFF30080AFF3008039
:102B7000F8B5046D202307462361226912F0200571
:102B8000FBD10C20FEF7D4FA7B6D9E682A46FF210C
:102B90004FF0006504EB42130132B242C3F8005912
:102BA000C3F8005BC3F80819C3F8081BF2D94FF04B
:102BB000FF324FF00113C4F81828C4F81C387B6D9D
:102BC0001A68BA651B6863623A6D10231361136952
:102BD00013F01005FBD10C20FEF7AAFAD4F8003848
:102BE00023F4FE63C4F80038A06943F6406240F461
:102BF000402048F24003C1F200030921C0F6000260
:102C000040F01000A061C4F81018C4F81418FA605D
:102C1000C4F8105BC4F8003BC4F81059C4F800397C
:102C2000BB6D03F1100243F48013BA65A362F8BDD3
:102C3000036D90F84E10D3F8002822F4FE6242EAA9
:102C40000112C3F800287047AFF30080AFF3008093
:102C50002DE9F0410FFA81F800EB88064FF40047A8
:102C6000F368046D1A6802F00302022A0D4608BFD9
:102C7000C1F208070CD0032A08BFC1F20C0707D025
:102C80003946C1F20001C1F20407012A18BF0F46FC
:102C90006A0104EB020ED9684FF0000CCEF810CB9D
:102CA00000294DD0B3F812E005F15801490147EA77
:102CB0000E0E44F801E04FF0010CD4F81C1805F199
:102CC000100E0CFA0EFE4EEA0101C4F81C18224444
:102CD00099684FF0000EC2F810E900294CD09A8B89
:102CE000198A012A4FEA910388BF534305F13F0136
:102CF000826D04EB810103EB020E42EA0343C0F84C
:102D000058E04B60026DAB0143F02003136113697F
:102D10009806FCD40C20FEF70BFAF3681A8A05F12A
:102D2000480342EA85525B011743E7500122D4F879
:102D30001C3802FA05F51D43C4F81C58BDE8F081A3
:102D400004EB481105F1100ED1F800CB2CF4004C27
:102D5000C1F800CBD4F81C184FF0010C0CFA0EFE91
:102D600021EA0E01C4F81C18224499684FF0000EA5
:102D7000C2F810E90029B2D105F13F0204EB82024A
:102D80004FF48063C0F200235360026DAB0143F047
:102D90002003136113699906FCD404EB48180C2036
:102DA000FEF7C6F9D8F8003923F40043C8F8003913
:102DB000D4F81C38012202FA05F523EA0503C4F809
:102DC0001C38BDE8F08100BFAFF30080AFF3008096
:102DD0005831036D49015B5813F4004004D013F4DB
:102DE000001F0CBF02200120704700BFAFF300801E
:102DF0004831036D49015B5813F4004004D013F4CB
:102E0000001F0CBF02200120704700BFAFF30080FD
:102E100000EB8101CB681B6A19685B681160536025
:102E2000704700BFAFF30080AFF30080AFF30080C6
:102E300000EB810310B4DB68046D98695A8A43681B
:102E4000581E104404EB4111B0FBF2F243F0C043B2
:102E500043EAC243C1F8103B5DF8044B704700BF22
:102E600000EB810330B4DC68626953681361A3B17D
:102E700069B15D1E228A006DAC18B4FBF2F200EB62
:102E8000411143EAC243C1F8103930BC7047402BAE
:102E9000EFD9402353603F25ECE7036D03EB41116D
:102EA0004FF40023C1F8103930BC7047AFF30080F5
:102EB000F8B5066D06EB41130446D3F80859EA0746
:102EC0000F46C3F8085903D5D6F81038DB0720D4CD
:102ED0002D061DD50122D6F83438BA401A4217D033
:102EE000202383F311880121E36DD6F83428606E26
:102EF00001FA07F73B4322EA0707E365C6F834788F
:102F000018B1FDF7F5FC00236366002383F31188F5
:102F1000F8BD00EB8103DA685369D3F804E0D3F815
:102F200010C0E6451FD2CEEB0C0E0022C3F804E021
:102F30009A60FFF795FF202383F31188236D03EB3D
:102F400047120120D2F8001941F00441C2F80019DB
:102F5000D3F8341800FA07F20A43C3F834280023E0
:102F600083F31188B4E7B0F808E093684FF0010CE0
:102F70000CFA01F22EEA020202819847A8E700BF8C
:102F800070B540F61026C2F20006356D6B69AC696B
:102F90001C40E3046C6148D4A00448BFD5F808384D
:102FA000210707D57368DB6823B140F61020C2F211
:102FB00000009847E20613D5202383F31188AB69FC
:102FC000706E23F0100340F61026AB61C2F20006CB
:102FD00018B1FDF78DFC00237366002383F311887D
:102FE0006303D5F8185807D5EE0746D4A8074DD483
:102FF000690754D42A075BD4230307D5EE0329D4E9
:10300000AC0330D468031BD4290303D4BDE870405B
:10301000FDF7BEBA40F61020C2F200000321FFF710
:10302000CFFABDE87040FDF7B3BA3046FEF758FC62
:1030300073681B68002BAFD0304600219847ABE780
:1030400040F610200221C2F20000FFF7B9FA29036E
:10305000DCD5DFE740F61020C2F200000021FFF7C8
:10306000AFFAAC03CED540F61020C2F20000012129
:10307000FFF7A6FA6803C7D5E2E740F61020C2F2D0
:1030800000000021FFF714FFA807B1D540F610207B
:103090000121C2F20000FFF70BFF6907AAD540F635
:1030A0001020C2F200000221FFF702FF2A07A3D579
:1030B00040F61020C2F200000321FFF7F9FE9BE763
:1030C000036D03EB4111D1F8003B43F08063C1F87D
:1030D000003B7047AFF30080AFF30080AFF3008098
:1030E000036D03EB411210B4D2F8004944F00444DC
:1030F000C2F80049D3F834285DF8044B012000FAE7
:1031000001F11143C3F83418704700BFAFF30080DA
:10311000036D03EB4111D1F8003B43F40013C1F8F8
:10312000003B7047AFF30080AFF30080AFF3008047
:10313000036D03EB4111D1F8003943F40013C1F8DA
:1031400000397047AFF30080AFF30080AFF3008029
:10315000036D03EB4111D1F8003B23F40013C1F8D8
:10316000003B7047AFF30080AFF30080AFF3008007
:10317000036D03EB4111D1F8003923F40013C1F8BA
:1031800000397047AFF30080AFF30080AFF30080E9
:1031900011F00C0F00D17047FDF7BAB9AFF3008002
:1031A00011F00C0F38B5044637D1606A0268136815
:1031B00023F01F0313601368D907FCD4057A216A32
:1031C00043680A683D20A8401860136823F01F0375
:1031D00013601368DB07FCD46368087A4A681B68CD
:1031E0003D2181401160ABB10422227020469847F6
:1031F0002378042B0ED0202383F31188A3682BB1EE
:103200000022A26018465A62FDF772FB002383F386
:10321000118838BD02232370EDE7FDF779F9C4E783
:10322000F8B540F6E43340F6E835C2F20005C2F2E4
:103230000003194E4FF6FF72284640F61844C2F2BA
:1032400000041A80FEF73CFA4FF440511622462340
:10325000C4F20101C0F20162C0F2016306F1240769
:103260002046E9612E62AA62EB626F62FEF728FADD
:103270004FF4605116224623A6F13C00C4F200012F
:10328000303EC0F20102C0F20103E16120626662D9
:10329000A262E362F8BD00BFC03D0008AFF300804A
:1032A0000378012B10B504461ED0C3696268A06A7A
:1032B0005289E16A20F4F04021F4F04112F4006FE9
:1032C0001CBF40F4205041F42051A062E16242F45E
:1032D00041720020072118801A8099801A8892B2C2
:1032E00042F040021A8010BD40F6E833C2F20003FB
:1032F00098420FD040F61843C2F20003984224D0FF
:10330000216A626AE3690868116803F10C0282604D
:103310008A60CBE743F2A112C0F600020A212346DD
:10332000006AFEF7DDFE43F29112C0F6000223466A
:10333000606A0A21FEF7D4FE4FF46053C4F2020320
:103340005A6C42F480525A64DAE743F2A112C0F692
:1033500000020A212346006AFEF7C2FE43F29112E0
:10336000C0F600022346606A0A21FEF7B9FE4FF458
:103370006053C4F202031A6C42F480421A64BFE73D
:1033800043681A895B68012101FA02F292B25A83FA
:10339000704700BFAFF30080AFF30080AFF3008051
:1033A00043681A895B68012101FA02F292B21A831A
:1033B000704700BFAFF30080AFF30080AFF3008031
:1033C000F0B4046A476A866AC56A24683868E360AC
:1033D00046F4806645F4806561602660C2604160A5
:1033E0000560236843F001032360036843F0010391
:1033F0000360F0BC704700BFAFF30080AFF3008004
:10340000F0B4036A476AC66A1C68806A3B6840F683
:103410004845C2F2000546F48066E56061602060C0
:10342000DA6059601E60226842F0010222601A6868
:1034300042F001021A60F0BC704700BFAFF3008099
:1034400038B540F64C45C2F200052B691A69DC68B4
:103450001440A4B2E2B2D2431A61A3072AD460078F
:1034600020D4210716D4E2060CD4E30706D56B68F6
:1034700040F64C409B68C2F200009847BDE83840D7
:10348000FDF786B86B6840F64C409B6AC2F20000BC
:103490009847EAE76B6840F64C401B6AC2F20000AE
:1034A0009847E0E76B6840F64C409B69C2F2000029
:1034B0009847D6E76B6828461B699847CFE700BF57
:1034C00010B540F64C44C2F200042046FDF760FE01
:1034D0004FF40063C4F20003236110BDAFF300801A
:1034E0000378012B70B5044656D042680369106B0F
:1034F000002120F0FF001960D860196159639963B9
:10350000D96319645962E66810682589D168D46A5C
:10351000B6FBF0F0013D013801F00F01ADB280B211
:1035200001299862DD625C6003D002290CBF03218F
:103530000021506900F00F0001282AD0022826D06F
:10354000D06900F00F0001281ED002281AD0506A5E
:1035500000F00F00012803D0022803D141F40051EC
:1035600041F480510120196258619068DA680021A5
:1035700088420CBF104642F001008522D8601961D4
:103580001A6070BD41F4007141F48071DFE741F0D1
:10359000200141F01001D3E740F64C43C2F2000392
:1035A000984206D02369626846F668019961D9613C
:1035B000A9E74FF46053C4F202030022196C41F0F2
:1035C00004011964196A41F0040119621E201A628B
:1035D0007021FDF73DF84FF43D43C0F20153E36025
:1035E000E0E700BFAFF30080AFF30080AFF30080EF
:1035F00010B44468036904EBC10001F10C040069D4
:1036000003EB8404626048B1DA68022000FA01F139
:10361000114201BF0A43C943DA6019615DF8044BE6
:10362000704700BFAFF30080AFF30080AFF30080BE
:103630004FF48843C4F200039A8992B242F08002A8
:103640009A817047AFF30080AFF30080AFF3008042
:10365000F8B540F66046C2F20006756FAF892C8857
:10366000A4B2E005BFB24BD4202383F31188A10696
:1036700024D50BE0A98840F66040C2F20000C9B230
:10368000FDF72EFE2C88A4B2A00617D52207F1D094
:1036900014F0080F14BF8021002114F0010F18BF8F
:1036A00041F02001A30748BF41F0400164072C48C6
:1036B00048BF41F48071FDF73BFBDBE7002383F358
:1036C0001188390601D5220629D4630614D5202392
:1036D00083F31188726CB36C40F660409A42C2F278
:1036E00000002BD04FF6BF733B404FF6BF72AB814B
:1036F00000232A8083F31188BDE8F840FCF748BF17
:10370000202383F311884FF40071301DFDF710FB67
:10371000002383F311884FF6FF632B80A4E7202357
:1037200083F311880F48FDF73BFC0028A4BF80B24B
:10373000A8800BDB002383F31188C6E7836B002B83
:10374000D0D004301021FDF7F3FACBE7044808216C
:10375000FDF7EEFA27F0C00343F04003AB81E9E741
:10376000640C0020900C0020AFF30080AFF30080C9
:1037700010B540F66044C2F2000443F231622046C4
:10378000C0F600020021FDF773FD4FF48843C4F238
:103790000003636710BD00BFAFF30080AFF300808C
:1037A00038B543F67064037AC0F60004002918BFE8
:1037B0000C46012B054631D06B6F4FF4A0514FF4EE
:1037C0008052C4F20102C4F20101934218BF8B423D
:1037D0000BBF216821684FF43D424DF680620CBF5B
:1037E000C0F20152C0F28022B2FBF1F292B21A8111
:1037F000A288E188208942F4045241F0400442F05A
:103800002C0240F0010092B2A4B280B200211C82CE
:1038100098829A8119801A889B8838BD40F6604347
:10382000C2F200039842C7D14FF46053C4F20203BE
:1038300026201A6C42F400321A64C021FCF708FFFB
:10384000BAE700BFAFF30080AFF30080AFF30080B2
:10385000FEF7F6BCAFF30080AFF30080AFF300805B
:10386000704700BFAFF30080AFF30080AFF300807C
:10387000F8B540F6D84540F6DC440F460646C2F29D
:103880000004C2F20005FDF733FF67F07F0E224609
:103890002B4630460221FF2784F800E06770FDF7D1
:1038A00047FF3046FDF734FF6878F8BDAFF300807E
:1038B000A1F1100370B50C46054616466B2B37D8A0
:1038C000DFE803F0373737373737373736363637AD
:1038D000373737373737373737373636363636367E
:1038E0003636373636363636363636363636363677
:1038F000363636363737373737373737373737375C
:103900003737373737373737373737373637373748
:10391000363636363737373737373737373737373B
:103920003737373737373737373737373737373727
:1039300070BDFDF7DDFE40F6DC43C2F20003284611
:103940001A4602211C705E70FDF712FF2846BDE882
:103950007040FDF7DDBE00BFAFF30080AFF3008025
:1039600040F6E043C2F200031B607047AFF30080F3
:10397000022909D003290CD044F23010C0F600000F
:10398000012918BF0020704743F6B070C0F6000050
:103990007047032A06D844F20010C0F6000000EB7E
:1039A000C200704700207047AFF30080AFF3008083
:1039B000022910B504461AD1202383F3118843F657
:1039C0008072C0F600020121FDF71AFF43F6C072B3
:1039D0002046C0F600020221FDF712FF40F670609B
:1039E000C2F20000FDF794FD002383F3118810BD9F
:1039F00040F64012C2F200022DE9F84F926944F2FB
:103A00006013C0F6000340F6E8309361C2F2000094
:103A100023218822FFF74CFF40F6E830C2F2000075
:103A200020216722FFF744FF40F6E830C2F2000091
:103A30002421E022FFF73CFF40F6E830C2F200000C
:103A400025215222FFF734FF40F6E830C2F2000091
:103A50002E214022FFF72CFF40F63013C2F2000364
:103A600041F2C80841F2CC07D3F80C90C2F200082A
:103A7000C2F200070324013C08EB040318F8041009
:103A80003A5D59703B1941F2C80641F2CC055A70B3
:103A9000C2F20006C2F20005002CECD140F618403C
:103AA000C2F20000FDF724FE40F61840C2F200000A
:103AB00004213246FDF75CFE40F618402A460421F8
:103AC000C2F20000FDF754FE40F61840C2F20000BA
:103AD000FDF71EFE95F900A095F9013096F900B0AA
:103AE00096F9012095F902E096F902C095F90310C4
:103AF00096F903005A4453446244734402440B440D
:103B0000D51CD91C32EA220228BF2A4633EA2303F5
:103B100028BF0B4695109A1027D440F64C4092B21D
:103B2000C2F200000121FDF74BFB40F64C4022465B
:103B3000C2F200000321FDF743FB002D28DB40F615
:103B40004C40AAB2C2F200000221FDF739FB40F658
:103B50004C400021C2F200000A46FDF731FB09F19A
:103B600064094846FDF784F884E7524240F64C4029
:103B700092B2C2F200000321FDF722FB40F64C4056
:103B80002246C2F200000121FDF71AFB002DD6DA11
:103B90006A4240F64C4092B2C2F200000021FDF7AA
:103BA0000FFB40F64C40C2F2000002210022FDF75C
:103BB00007FBD4E7AFF30080AFF30080AFF30080E2
:103BC000F0B4840743D0541E002A3ED0CDB2034641
:103BD00003E0621E002C38D0144603F8015B9A07FC
:103BE000F7D1032C2AD9CDB245EA05250F2C45EA99
:103BF000054515D9A4F110073F0903F1100606EB9E
:103C000007161A46156055609560D5601032B242AD
:103C1000F8D104F00F040137032C03EB07130DD97F
:103C20001E462246043A032A46F8045BFAD8221FAD
:103C300022F003020432134404F003042CB1C9B28D
:103C40001C4403F8011BA342FBD1F0BC704714468F
:103C50000346C6E70000000000000000000000006E
:103C600020F0030110F00300C0F1000051F8043B04
:103C700000F1040C4FEACC0C6FF000021CBF22FADA
:103C80000CF213434FF0010C4CEA0C2C4CEA0C4C98
:103C9000A3EB0C0222EA030212EACC1204BF51F891
:103CA000043B0430F4D013F0FF0F1FBF013013F4B6
:103CB0007F4F013013F47F0F18BF0130704700BFF2
:103CC00069646C6500000000000000000000000056
:103CD0006D61696E00168511040448080C101418F3
:103CE000001C1D1E1F20000000000000000000003E
:103CF00011120008F11100085112000831120008D9
:103D0000411200082112000801120008E111000808
:103D1000211400080114000861140008411400086F
:103D2000511400083114000811140008F1130008A0
:103D30000000000000000000000000000000000083
:103D40000000000000000000000000000000000073
:103D50000100000000000000000000000000000062
:103D6000106002400860024000000B002860024022
:103D70000860024006010C004060024008600240FA
:103D800010020D00586002400860024016030E0049
:103D9000706002400C60024000040F008860024026
:103DA0000C60024006051000A06002400C6002405A
:103DB00010061100B86002400C60024016072F0088
:103DC0001064024008640240000838002864024081
:103DD0000864024006093900406402400864024059
:103DE000100A3A005864024008640240160B3B0077
:103DF000706402400C640240000C3C008864024085
:103E00000C640240060D4400A06402400C640240B1
:103E1000100E4500B86402400C640240160F4600C4
:103E200080000000400100000300000000000000CE
:103E30007573625F6C6C645F70756D70000000007C
:103E40000000000011190008311C0008011D0008C5
:103E500040004000C80B0020C80B002001000000FB
:103E6000DC0B00200000000000000000000000004B
:103E7000009600000000004000000000000000006C
:103E800000AAA02A00000000FFABFFFF5400014081
:103E9000FFFF00000000565500AA0A00802008001D
:103EA00040020000FFFFFFFF15455155FFFF0000D6
:103EB000000000044000000001802002000000001B
:103EC000FFFFFFFF54154554FFFF00000000006096
:103ED000000606000001005500000000FFFFFFFF84
:103EE00055505500FF0F00000000000000000000CA
:103EF0004000000000000000FFFFFFFF0000000086
:103F0000FFFF0000000000000000000000000000B3
:103F100000000000FFFFFFFF00000000FFFF0000A7
:103F20000000000000000000000000000000000091
:103F3000FFFFFFFF00000000FFFF00000000000087
:103F4000000000000000000000000000FFFFFFFF75
:103F500000000000FFFF0000000000000000000063
:103F60000000000000000000FFFFFFFF0000000055
:103F7000FFFF000000000000000000000000000043
:103F80000200000000000000B11500083116000812
:103F900040004000F80C00200C0D00200200000042
:103FA0000000000000000000000000000000000011
:103FB0004300000000400008000000000000000076
:103FC0000300000000000000A1160008000000002F
:103FD00010000000E40C00200000000001000000C0
:103FE00000000000000000000000000000000000D1
:103FF000B13900087139000861150008000000009F
:1040000009024300020100C032090400000102025B
:10401000010005240010010524010001042402020E
:104020000524060001070582030800FF09040100BA
:10403000020A000000070501024000000705810296
:104040004000000000000000000000000000000030
:1040500012011001020000408304405700020102D7
:10406000030100000000000000000000000000004C
:10407000040309040000000000000000000000002C
:104080002603530054004D006900630072006F0066
:1040900065006C0065006300740072006F006E00C4
:1040A00069006300730000000000000000000000D1
:1040B0003803430068006900620069004F00530044
:1040C0002F00520054002000560069007200740056
:1040D000750061006C00200043004F004D0020007F
:1040E00050006F007200740000000000000000002B
:1040F0000803320036003500000000000000000018
:104100000400000070400008260000008040000805
:1041100038000000B040000808000000F04000082F
:10412000100A002001010200000000000000000051
:1041300012000000504000080000000000000000D5
:10414000000000000010024003001B0000000000FF
:1041500000000000000402400C000000000000000D
:10416000726561646572000048656C6C6F2C205349
:104170005446552E200A200D0000000000000000CB
:10418000A086010080000000000000000100000087
:10419000000000000100000000000000010000001D
:1041A000000000000100000000000000000000000E
:0441B000000000000B
:0841B800009600000000080061
:04000005080003C12B
:00000001FF
